000000108902352000144XYZ TECNOLOGIA                          0269187000004906600000
000000284989356000190DE NASA LTDA                            0269187000004906600000
000000378987838000108DIAS NOVOS SA                           0269187000004906600000
000000435949857000137ALVER INFORMATICA LTDA                  0275950000004854820000
